:020000040800F2
:10000000D8080020310200080F1700088D160008DC
:100010000D1700081F060008351A00080000000030
:10002000000000000000000000000000131700089E
:10003000210600080000000011170008151700082D
:100040004B0200084B0200084B0200084B0200085C
:100050004B0200084B0200084B0200084B0200084C
:100060004B0200084B0200084B0200084B0200083C
:100070004B0200084B0200084B0200084B0200082C
:100080004B0200084B0200084B0200084B0200081C
:100090004B0200084B0200084B0200084B0200080C
:1000A0004B0200084B0200084B0200084B020008FC
:1000B0004B0200084B0200084B0200084B020008EC
:1000C0004B0200084B0200084B0200084B020008DC
:1000D0004B020008291A00084B0200084B020008D6
:1000E0004B0200084B0200084B0200084B020008BC
:1000F0004B0200084B0200084B0200084B020008AC
:100100004B0200084B0200084B0200084B0200089B
:10011000B51700084B0200084B0200084B0200080C
:100120004B0200084B0200084B0200084B0200087B
:100130004B02000800000000000000004B02000815
:100140004B0200084B0200084B0200084B0200085B
:100150004B0200084B0200084B0200084B0200084B
:100160004B0200084B0200084B0200084B0200083B
:100170004B0200084B0200080000000000000000D5
:100180004B0200084B02000800F002F800F041F8B2
:100190000AA090E8000C82448344AAF10107DA45E2
:1001A00001D100F036F8AFF2090EBAE80F0013F0F3
:1001B000010F18BFFB1A43F0010318479C190000F8
:1001C000BC190000103A24BF78C878C1FAD8520789
:1001D00024BF30C830C144BF04680C6070470000C1
:1001E0000023002400250026103A28BF78C1FBD840
:1001F000520728BF30C148BF0B607047642900F028
:10020000F780002070471FB501F095FC1FBD10B5A9
:1002100010BD00F0CAF91146FFF7F5FF01F082FCAE
:1002200000F0E8F903B4FFF7F2FF03BC00F0F0F9C7
:100230000948804709480047FEE7FEE7FEE7FEE77A
:10024000FEE7FEE7FEE7FEE7FEE7FEE704480549B6
:10025000054A064B70470000A517000889010008F1
:10026000D8020020D8080020D8040020D80400209C
:1002700053EA020C00F069802DE9F04B4FF00006C4
:10028000002B1FBFB3FA83F503FA05F424FA05F631
:100290005E4012BF1643B2FA82F502FA05F4C5F1C8
:1002A00020051EBF22FA05FC44EA0C04203556EA5C
:1002B000044C4FEA144418BF641C4FF000084FF080
:1002C0000009904271EB030C39D3002919BFB1FA30
:1002D00081F701FA07F6B0FA80F700FA07F6C7F1DE
:1002E00020071EBF20FA07FC46EA0C062037B6FBA3
:1002F000F4FCA7EB0507103F07F01F0BCBF120061E
:100300000CFA0BFB2CFA06F644BFB3460026202F4E
:10031000A4BF5E464FF0000B5BEA060C08BF4FF02F
:10032000010B19EB0B09ABFB027C48EB0608C01B69
:1003300006FB02CC0BFB03CC71EB0C01C1E70B46B7
:10034000024641464846BDE8F08B13B54FF0000029
:100350004FF00001AFF30080BDE81C407047000083
:100360000FB41CB5074B06AA7B446946009005985C
:1003700000F003F90020694600F012F91CBC5DF89A
:1003800014FB0000350200002DE9F0410E46044642
:10039000002020622046E168884730B3252805D038
:1003A000D4E901219047206A401CF2E7E168204629
:1003B00000278847050018D0A5F14100192802D868
:1003C00020354FF400673246294620462760FFF764
:1003D00015FF40B1012804D0F61D26F007060836A7
:1003E000D8E7361DD6E72846DAE7206ABDE8F0816F
:1003F0002DE9F0410646002410687529314616A5FE
:1004000010D0AFF30080002802DA404213A507E0C5
:1004100031688A0701D512A502E0490704D511A564
:10042000012401E0AFF3008000210A2206F1240735
:1004300009E0B0FBF2FCB0FBF2F302FB1C00303031
:1004400078541846491C0028F3D123462A463046E2
:10045000BDE8F04100F032B8000000002D000000BF
:100460002B000000200000004FF0000200B51346F2
:1004700094469646203922BFA0E80C50A0E80C50C4
:10048000B1F12001BFF4F7AF090728BFA0E80C5075
:1004900048BF0CC05DF804EB890028BF40F8042B6E
:1004A00008BF704748BF20F8022B11F0804F18BFDB
:1004B00000F8012B70477047704770472DE9F047EF
:1004C0000D4699469246044600F1240801688806C4
:1004D00004D5E06921F01001216000E00120A8426C
:1004E00001DD471B00E00027A1697A1902EB090032
:1004F000081AA0612078C00602D42046AFF300801D
:10050000002608E0D4E901211AF806009047206A85
:10051000401C761C20624E45F4DB2078C0060AD5CC
:100520002046AFF3008006E0D4E901213020904757
:10053000206A401C2062381EA7F10107F4DC07E0A6
:10054000D4E9012118F805009047206A401C206278
:10055000281EA5F10105F3DC2046AFF300802078CA
:10056000000602D50220BDE8F0870120FBE700006D
:1005700001694A1C02610878704700B58FB0CDE967
:1005800001310021059105497944CDE90310114657
:100590006846FFF7F9FE0FB000BD0000E5FFFFFF62
:1005A0000A6802F8010B0A607047754600F02CF8E3
:1005B000AE4605006946534620F00700854618B050
:1005C00020B5FFF743FEBDE820404FF000064FF096
:1005D00000074FF000084FF0000B21F00701AC4678
:1005E000ACE8C009ACE8C009ACE8C009ACE8C00997
:1005F0008D46704710B50446AFF300802046BDE835
:100600001040FFF70FBE000000487047780200203E
:1006100001491820ABBEFEE7260002007047FEE746
:10062000704772B6FEE72DE9F0410446876D00F091
:1006300053F9064694F835000025022806D080209C
:10064000606584F834500120BDE8F08120680168BD
:1006500021F0160101602068416921F080014161AB
:10066000206C08B9A06C20B12068016821F0080155
:1006700001602068016821F0010101600CE000F0D8
:100680002BF9801B052807D920206065032084F8FA
:10069000350084F83450D7E720680068C007EED1F1
:1006A00094F85C103F208840B860012084F8350041
:1006B00084F834500020C7E790F83510022903D0A1
:1006C0008021416501207047052180F835100068C0
:1006D000016821F001010160002070472DE9F84F09
:1006E000DFF8BCA10022012503264FF00F090AF113
:1006F000040BAAF1040E00BF0B6805FA02F42340B4
:10070000A34270D10F7907F00307012F01D0022F08
:1007100016D187684FEA420806FA08FC27EA0C0758
:10072000D1F80CC00CFA08FC4CEA070CC0F808C061
:100730004768A7430C79C4F3001494403C434460D9
:100740000C79E443A4070AD0C4684FEA420C06FAC5
:100750000CF7BC438F6807FA0CF72743C7600C7986
:1007600004F00304022C12D1D40800EB840CDCF852
:1007700020405707FF0E09FA07F824EA0804D1F8C9
:10078000108008FA07F848EA0408CCF820800468CA
:100790004FEA420C06FA0CF7BC430F7907F0030747
:1007A00007FA0CF7274307604C6814F4403F70D0F9
:1007B0003C4C276847F480472760246822F00307F1
:1007C00004F480440094384C07EB040CDCF808482F
:1007D00097074FEA177809FA08F7BC43334FB84236
:1007E00002D1002724E054E0314FB84201D1012763
:1007F0001EE0304FB84201D1022719E02E4FB84217
:1008000001D1032714E02D4FB84201D104270FE096
:100810002B4FB84201D105270AE02A4FB84201D137
:10082000062705E0284FB84201D1072700E0082736
:1008300007FA08F72743CCF80878DAF8004057465B
:10084000D1F804C09C435FEACC2C00D51C433C602B
:10085000DBF800405F46D1F804C09C435FEA8C2C73
:1008600000D51C433C60DEF800407746D1F804C058
:100870009C435FEA8C3C00D51C433C60084F083F1A
:100880003C68D1F804C09C435FEACC3C00D51C43D3
:100890003C60521C102AFFF42FAFBDE8F88F000017
:1008A000083C014044380240003001400000024052
:1008B0000004024000080240000C02400010024008
:1008C0000014024000180240001C02400AB181617D
:1008D00070470904FBE7000001488068704700008A
:1008E0002800002002488168027811448160704726
:1008F000280000200B4810B5016841F40071016028
:10090000016841F480610160016841F48071016017
:10091000032000F06FF80F2000F006F800F024F834
:10092000002010BD003C024070B50D4D04464FF450
:100930007A712878B1FBF0F00A490968B1FBF0F050
:1009400000F00AFB48B9102C07D200222146501EA5
:1009500000F030F800206C6070BD012070BD000018
:1009600028000020340000200A4808B5016841F43E
:1009700080410160006800F4804000900548001F3D
:10098000016841F080510160006800F080500090E3
:1009900008BD000044380240002809DB00F01F02B7
:1009A000012191404009800000F1E020C0F80011D1
:1009B00070470000F0B40E4B1B680C46C3F30223D3
:1009C000C3F10705042D00D90425191D072901D2FB
:1009D000002300E0DB1E012606FA05F1491E214036
:1009E00099409E40761E16403143F0BC01F023B87A
:1009F0000CED00E0064900F0070208684FF6FF031F
:100A0000184040EA0220034A104308607047000083
:100A10000CED00E00000FA052DE9F0470E46050058
:100A200065D0DFF81481D8F80000F7B200F00700B5
:100A3000B04207D288F80070D8F8000000F0070034
:100A4000B04254D128683D4C810712D5400703D5E8
:100A5000206840F4E05020602878000703D5206823
:100A600040F4604020602068A96820F0F00008434E
:100A700020602878C0072DD03049686808390128DF
:100A800012D0022813D0032811D009688907002941
:100A90002DDA216821F0030101432160FFF71CFFDB
:100AA000814641F2883A0EE009688903EFE7096858
:100AB0008901ECE7FFF710FFA0EB0901514502D9CE
:100AC0000320BDE8F0872068696800F00C00B0EBF7
:100AD000810FEFD1D8F80010404601F00701B14274
:100AE00007D90770006800F00700B04201D001206C
:100AF000E7E72878400705D52068E96820F4E0504A
:100B0000084320602878000706D52068296920F46A
:100B1000604040EAC100206000F038F82168084ACF
:100B2000C1F30311515CC8400649086006480068DB
:100B3000FFF7FAFE0020C4E7003C024008380240FC
:100B4000401B0008340000202C0000200448054908
:100B500000680968044AC1F38221515CC8407047AB
:100B60003400002008380240501B000804480549A2
:100B700000680968044AC1F34231515CC8407047BB
:100B80003400002008380240501B0008154810B5FA
:100B9000006810F00C02144813D04110042A0FD042
:100BA000082A0ED10F4C241F2268236802F03F024E
:100BB0005B0207D52068C0F38810A0FB010106E0A6
:100BC000084610BD2168C1F38811A1FB0001002374
:100BD000FFF74EFB2168C1F30141491C4900B0FBFE
:100BE000F1F010BD083802400024F4002DE9F84F60
:100BF00004006ED02078DFF84C93C007A9F10405FB
:100C00004AD009F104000168C1F38101012908D02B
:100C10000068C0F3810002280AD1D9F80000400220
:100C200006D52868800337D560680028E1D033E016
:100C30006068B0F5803F10D0B0F5A02F286810D0C4
:100C400020F480302860286820F4802028606068C4
:100C5000A8B1FFF741FE06460DE0286840F4803059
:100C6000F4E740F480202860F7E700BFFFF734FE88
:100C7000801B642873D828688003F7D50CE0FFF741
:100C80002BFE064605E000BFFFF726FE801B64280A
:100C9000F0D828688003F7D42078DFF8AC8280078A
:100CA0004FF0000A3ED5A748001D016811F00C0F57
:100CB00008D00068C0F3810002280BD1D9F80000E9
:100CC000400207D42868800716D5E068012800D1C3
:100CD00012E033E1E068B8B10120C8F80000FFF786
:100CE000FBFD064605E000BFFFF7F6FD801B02286E
:100CF000C0D828688007F7D52868216920F0F80057
:100D000040EAC10028600DE0C8F800A0FFF7E4FD4C
:100D1000064604E0FFF7E0FD801B02281FD8286884
:100D20008007F7D42078000722D5864F874861696D
:100D3000703771B101210160FFF7CEFD064604E076
:100D4000FFF7CAFD801B022809D838688007F7D54D
:100D50000EE0C0F800A0FFF7BFFD064605E082E008
:100D6000FFF7BAFD801B02287DD838688007F7D4CA
:100D70002078400768D5DFF8CCB100270BF13C0B99
:100D8000DBF80000C0000BD4DBF8001041F080510C
:100D9000CBF80010DBF80000012700F08050009035
:100DA0006B4E3068C00510D4306840F480703060FD
:100DB000FFF792FD009005E0FFF78EFD0099401AC5
:100DC000022850D83068C005F6D55E4EA0686C3653
:100DD00001280FD00528306810D020F001003060C5
:100DE000306820F004003060A068B8B1FFF774FDEF
:100DF00000900FE0306840F00100F4E740F004009C
:100E00003060F7E7FFF768FD0099411A41F288303A
:100E1000814266D830688007F4D50EE0FFF75CFDAC
:100E2000009007E0FFF758FD0099411A41F2883021
:100E3000814256D830688007F4D42FB1DBF8001017
:100E400021F08051CBF80010A069C8B33D49091DBD
:100E50000968C1F3810102294AD00228504607D00F
:100E6000C8F8600000E03CE0FFF736FD04463BE0D8
:100E70004746C8F86000FFF72FFD064605E000BFB3
:100E8000FFF72AFD801B02282BD828688001F7D4A1
:100E9000D4E907010843A16A2E4A490802EB01413F
:100EA000626A41EA8211084394F82C1040EA016119
:100EB000C9F8001001203866FFF70EFD044606E071
:100EC0003EE000BFFFF708FD001B022809D8286894
:100ED0008001F7D534E000BFFFF7FEFC001B0228BD
:100EE00002D90320BDE8F88F28688001F4D427E0F8
:100EF0000128F7D0D9F80000E26900F4800191429E
:100F00001CD1226A00F03F01914217D147F6C0710F
:100F1000626A0140B1EB821F10D1A26A4FF0FF3329
:100F200000F4403103EB5202B1EB024F06D194F8CA
:100F30002C1000F07060B0EB016F01D00120D1E700
:100F40000020CFE70438024000004742800E4742AD
:100F5000007000400000FFFF10B5401EB0F1807F20
:100F600001D3012010BD4FF0E02460610F21601714
:100F700000F061FD0020A06107202061002010BD6D
:100F800070477047F8B5016804460868CA684B693D
:100F900010F00F0F4FF0000559D003F0010602F4D6
:100FA0009077374365D0C10705D0D10503D5216CB3
:100FB00041F001012164410705D5D90703D0216C17
:100FC00041F002012164810705D5D90703D0216CC6
:100FD00041F004012164010707D502F020013143EB
:100FE00003D0216C41F008012164216C00293AD022
:100FF000800604D5900602D5204600F010FC20683B
:101000004069216CC0F38010090700D460B320460A
:1010100000F0DEFB20684069400621D520681430CE
:1010200050E8001F21F0400140E80012002AF5D1ED
:10103000A06BA8B16C490165A06BFFF73DFB0028D0
:1010400011D0A06B016D01B0BDE8F04008478306E8
:101050000FD593060DD52046BDE8F84000F0DFBB64
:101060002046FFF78EFFF8BD2046FFF78AFF256474
:10107000F8BD266B2023012E79D1C60677D5D6067A
:1010800075D50868486800904869400640D5A16B4E
:10109000086840680004000CEAD0A28D8242E7D9BB
:1010A000E085C869B0F5807F2DD020680C3050E80D
:1010B000001F21F4807140E80012002AF5D1206859
:1010C000143050E8001F21F0010140E80012002A0E
:1010D000F5D12068143050E8001F21F0400140E8AD
:1010E0000012002AF5D184F83E30256320680C30C8
:1010F00050E8001F21F0100140E80012002AF5D14D
:10110000A06BFFF790FAA08DE18D401A81B229E023
:10111000A08DE18D401A81B2E08D0028A8D0002971
:10112000A6D020680C3050E8002F22F4907240E8DE
:101130000026002EF5D12068143050E8002F22F050
:10114000010240E80026002EF5D184F83E302563E8
:1011500020680C3050E8002F22F0100240E80023F5
:10116000002BF5D12046FFF70BFFF8BDFFE7050682
:101170002BD5150629D594F83D002128F5D1A06876
:10118000B0F5805F01D12069B0B1206A411C2162B5
:10119000216800784860E08C401E0004000CE08468
:1011A000E3D12068C16821F08001C1602068C16876
:1011B00041F04001C160D8E7206A0088C0F3080010
:1011C0004860206A801C2062E5E74006CDD55006C5
:1011D000CBD5CA68204622F04002CA6084F83D3070
:1011E00000F053FAC1E70000C117000870B5040011
:1011F00004D094F83D00002510B106E0012070BD38
:1012000084F83C50204600F023F8242084F83D0068
:101210002068C16821F40051C160204600F060FBE5
:101220002068016921F4904101612068416921F041
:101230002A0141612068C16841F40051C160256400
:10124000202084F83D0084F83E00002070BD00009E
:1012500070B586B0044614216846FFF705F9246886
:10126000294E00232949032202252948B44221D1CD
:10127000264C1034266846F400262660246804F4C0
:10128000002405940C6844F001040C600968029382
:1012900001F001010591CDE900250821CDE90321E7
:1012A0006946FFF71BFA002211463420FFF782FB44
:1012B000342025E0174EB44224D1144C143426684F
:1012C00046F010062660246804F0100405940C68AB
:1012D00044F001040C600968029301F001010591DA
:1012E0004FF4C061CDE900150721CDE9032169461E
:1012F000FFF7F4F9002211462520FFF75BFB2520BC
:10130000FFF74AFB06B070BD004C00403038024089
:10131000000002400010014090F83E30202B0ED11A
:1013200059B152B190F83C30012B08D0012380F81C
:101330003C300023036300F059BB012070470220BA
:10134000704700002DE9FC470068B749884271D119
:10135000B64DB648083D0F22297800784B1C002670
:10136000B34F03F0FF0C4FF00A09042906D2AA2854
:1013700001D02E706EE085F800C06BE00C1F062CCB
:1013800065D2AA490839062C4B7863D2DFE804F00D
:10139000030612484B5788B12E706E70022810D089
:1013A0000D2817D00F281DD0102823D0142829D09D
:1013B0002E706E7070B32E706E7032E00521297041
:1013C0003BE00221E9702978491C29706978891C61
:1013D000697042E00D20E8702878401C2870687819
:1013E0000D3005E0EA702878401C287068780F30CE
:1013F0006870EBE01020E8702878401C287068784E
:101400001030F5E71420E8702878401C28706878C0
:101410001430EDE72978491C29706978697019E062
:1014200048B12E706E7028712978491C297069782E
:101430000144F3E7EAE085F800C06B700AE029791F
:1014400001EB0021297185F800901918E6E70A29B7
:1014500000D16E71E978022974D16979002971D1BE
:10146000297809296ED9734CBE297BD2A1F10A03D0
:1014700093FBF2FC02FB1C3202F0FF0C6B4A85F876
:1014800006C0083ABCF10F0F937803EB830269D2D0
:10149000DFE80CF0080B12161D21272E34383C42D1
:1014A000494F590024F8220046E034F8223003EB7B
:1014B000002324F822303FE004EB820250803BE01E
:1014C00004EB8202538803EB0023538034E004EBE7
:1014D0008202506030E004EB8202536803EB002389
:1014E00004E004EB8202536803EB0043536023E003
:1014F00004EB8202536803EB0063F7E704EB82021C
:10150000107219E004EB8202D06015E004EB820255
:10151000D36803EB002304E004EB8202D36803EBFF
:101520000043D36008E004EB8202D36803EB00635E
:10153000F7E704EB820210826A78491C02446A7061
:1015400029700FE042E004EB8202491CB2F810C09F
:101550005B1C0CEB002CA2F810C06A7802446A7085
:101560002970AB70C9B2BE290BD0304A083ABF29E6
:10157000126909D0C0290FD0C12912D0C22915D0B3
:1015800024E0BF21286103E002EB00212961C02192
:101590002970697808442BE702EB00412961C121D9
:1015A000F6E702EB00612961C221F1E76978884220
:1015B00005D100F051FA20490888401C0880208895
:1015C00038806E702E7001206871AE70012217494C
:1015D0001A48FFF7A1FE3A8819A16846FEF7C0FE37
:1015E00016488DF8049005226946443000F02EF824
:1015F000398840F214521348914201D9002200E088
:1016000001220121FFF762F9BDE8FC870E498842FB
:10161000FAD102B00549BDE8F04708480122491E49
:101620004430FFF779BE0000004C00401C00002051
:101630000400002088010020000000203800002065
:1016400025640000000802400010014090F83D3081
:10165000202B18D1A9B1A2B190F83C30012B12D0A7
:1016600001628284C28400210164212280F83D202D
:1016700080F83C100068C16841F08001C160002022
:10168000704701207047022070477047FEE7000056
:101690000E4810B50C4901604FF4613141600021E2
:1016A00081600C22C160C0E904128161C161FFF751
:1016B0009DFD08B1FEF7B5FFBDE8104001220449C9
:1016C0000248FFF729BE0000004C0040380000200F
:1016D0001C0000200C4810B50A4901604FF4E131AC
:1016E0004160002181600C22C160C0E90412816167
:1016F000C161FFF77BFD002803D0BDE81040FEF775
:1017000090BF10BD001001407C000020FEE7FEE706
:1017100070477047FFF7E6B830B593B030216846A0
:10172000FEF7A2FE14210CA8FEF79EFE1B48002522
:10173000016841F080510160006800F08050119014
:101740001748016841F4804101600068022400F4F8
:101750008040119001200090000401908001CDE9AB
:10176000064008AA0420482182E813000B9068462E
:10177000FFF73CFA08B172B6FEE70F20CDE90C0482
:101780008020CDE90E0501210CA81095FFF744F942
:10179000002801D072B6FEE713B030BD40380240D9
:1017A000007000400248016841F470010160704718
:1017B00088ED00E00148FFF7E5BB0000380000209D
:1017C00010B5806B0021C185C184FFF7DAFB10BD25
:1017D00001680C3151E8002F22F4907241E8002397
:1017E000002BF5D10168143151E8002F22F00102DD
:1017F00041E80023002BF5D1016B012909D10168D3
:101800000C3151E8002F22F0100241E80023002B98
:10181000F5D1202180F83E1000210163704708B502
:1018200090F83E10222901D0022008BD82684FF4B2
:1018300080539A4201D1016921B1816A9A421BD039
:101840004AB10AE00268816A5268C2F308020A805B
:10185000816A891C08E0026972B10268526802F06C
:101860007F020A70816A491C8162C18D491E090488
:10187000090CC18503D019E002685268F1E70168DC
:10188000CA6822F02002CA600168CA6822F4807225
:10189000CA6001684A6922F001024A61202180F889
:1018A0003E10016B012903D0FFF74CFD002008BD5D
:1018B0000021016301680C3151E8002F22F0100271
:1018C00041E80023002BF5D101680A68D20602D551
:1018D0000A6849680091818DFFF752FBE6E7000036
:1018E00070B5044600680169E26821F44051114373
:1018F00001612169A068E2690843616911430843F5
:101900002168CA6849F20C639A430243CA6020689E
:101910004169A26921F44071114341613149206854
:10192000884202D03049884202D1FFF71FF901E016
:10193000FFF70CF9E2690023192164253226B2F57C
:10194000004F626828D0A0FB0101930F9200FEF7C0
:101950008FFC0146B0FBF5F06FF01802504301EB2D
:10196000800006EB0010B0FBF5F000F0F002B1FBD8
:10197000F5F002EB0012B1FBF5F06FF018035843DD
:1019800001EB800006EB0010B0FBF5F000F00F005B
:1019900021681044886070BDA0FB010192185B4172
:1019A000FEF766FC0146B0FBF5F00201B1FBF5F075
:1019B0006FF01803584301EB800006EBC000B0FB4A
:1019C000F5F000F0F80002EB4002B1FBF5F05843EF
:1019D00001EB800006EBC000B0FBF5F000F0070063
:1019E000D6E70000001001400014014081628285AA
:1019F000C28500210164222280F83E2080F83C103C
:101A0000016921B10168CA6842F48072CA60016844
:101A10004A6942F001024A610068C16841F0200150
:101A2000C1600020704700000148FFF7ABBA00001A
:101A30007C000020FEE70907090E002804DB00F106
:101A4000E02080F80014704700F00F0000F1E02063
:101A500080F8141D704700002DE9F047DFF8A4A0BE
:101A6000294A002101EB81093AF929C0BCF1000F94
:101A70001FD0B2F80A800AEB890508F10108A2F824
:101A80000A808444B5F802806CF30F0008EB104C18
:101A90006CF31F40D5F804C0664495F808C09C4418
:101AA0006CF30703D5F80CC02D8A6744254465F311
:101AB0000F04491CC9B20C29D4D3518900291FD065
:101AC00005B295FBF1F5DFF844C0000CB0FBF1F076
:101AD000ACF800500E4D2880B6FBF1F00D4D28609B
:101AE000D8B2B0FBF1F00C4B1870B7FBF1F00B4B18
:101AF000186020B290FBF1F0094908800020508165
:101B0000BDE8F087880100201400002004000020B8
:101B1000060000200C000020020000201000002021
:101B200008000020FEF7E6FEFFF7F6FDFFF7B0FD28
:101B3000FFF7D0FDFEE74FF04070E1EE100A70476E
:101B4000000000000000000001020304060708096D
:101B50000000000001020304781B000800000020C0
:101B600038000000C4010008B01B00083800002045
:101B7000A0080000E00100080000000000000000D4
:101B80000000000000000000000000000000000055
:101B90000001000000000000000000000000000044
:101BA0000100000010000000000000000024F4000C
:040000050800018965
:00000001FF
